:040000008031F22831
:10000800803120007F08F6002100111C11282000F3
:10001800111C11288731212780318B190B1C54287A
:1000280020001508F5007508EA0095012700130857
:100038001205F50075082000EB006B1C3A28270014
:100048001310F01C342801302100D1070030D03DB6
:10005800CF3DCE3D01302100C5070030C43D3A28D0
:1000680020005D1E3A288F31BB2780312000EB1C11
:10007800542827009310701D4E2801302100D707FF
:100088000030D63DD53DD43D01302100C7070030B2
:10009800C63D542820005D1E54288F31BB2780316F
:1000A8002000911C9E289110F01F7128F01C6528D3
:1000B80021004508D301D3074408D201D207C4015F
:1000C800C501701D702821004708D901D9074608C5
:1000D800D801D807C601C701F01301302000D307A3
:1000E8000030D43D0130D1020030D23B52085104D7
:1000F800031D9E286430D1000030D200711C8D2869
:100108001508F5007508EA009E138B12711070141B
:100118009428F11C9428F11095010B118B16711479
:100128000130E602E608031D9E280A30F50075082E
:10013800E600F0172100111EBF282000111EBF285D
:10014800780879060319B9287908A03E860087013E
:10015800010823009A000130F5007508F9072030DE
:100168007902031CBF28F901BF2879087806031D06
:10017800BF28210011122100911ED8282000911EAD
:10018800D82823001908F50020006308203E8600BF
:1001980001308700750881000130F5007508E30714
:1001A8006308203A0319E3018B1A0B1DEE280B1183
:1001B800701FE42801302000D5070030D63DEE2816
:1001C8008B12FF30F50075082000DE006330F50063
:1001D8007508DC0076082000FF0009008031F4284B
:1001E800F001F101F701F801F9014B30840000300A
:1001F800850024308A3187228031A0308400003085
:1002080085004A308A3187228031203084000130CD
:10021800850020308A318722200081311329F0306F
:10022800210099000230950023008C012030200025
:100238008C003F3024008C008B018C313E248131AE
:100248002B3021008C0020000C11843022009D00EE
:10025800823023009E009D011E159F151E128A30B4
:100268009B009C019E169D171D162100111220004F
:100278009112111223001F121F10F801F90120001A
:10028800E301E4018B170B17210091162700910158
:10029800920193018B15F0107011F0118B31EF233F
:1002A80081318A31C322813100308231B9228131D2
:1002B80001308231B92281318A3181228131200095
:1002C800DF01CB302100EC00ED30EB004C30EA00D0
:1002D800EA0B6C29EB0B6C29EC0B6C2900328D3185
:1002E800252581312100EE0102306E0203188B2989
:1002F8006E35C03E860087010030C03FC13F0130E7
:10030800EA006A08EE0702306E02031C7C29F01925
:100318008F2920000C11F01DA0292100111AF8299D
:10032800E430EA0000320032EA0B9629003200007D
:1003380020000C11F011F8298731F7278131003A94
:100348000319F8298C31072481312100EA002000A3
:100358005F08DA3E8600870121006A0881000130C3
:10036800EA006A082000DF0708305F02031CF8294A
:1003780008302100EA006A082000DF00DA30843102
:10038800142481312100EA006A08ED006D08013A61
:10039800031DD2298F3177278131D72921006D0894
:1003A800023A031DDA292000DF01F829EE01EE0ADE
:1003B80008306E020318F5296E08DA3E86008701B8
:1003C8000108EA006E08FF3EDA3E860087016A08E7
:1003D80081000130EA006A08EE0708306E02031C4B
:1003E800E02901302000DF028131FF21813187318E
:1003F8006A2781318B2920005C08633A031DA22AF1
:10040800DE08031D0A2A8A31A52281310630200020
:10041800A6002608A00077088B3106238131CE3E3E
:100428002000A7002708A8005E08FF3A031D242A19
:10043800280886008701FF30C03FFF30C13F2F2AC0
:1004480028088600870181015E08A600280A860020
:100458008701260881005D08103A031D522A2100F1
:1004680064082000A6002808033E860087012608A5
:100478008100210066082000A6002808053E8600A5
:100488008701260881002808023E8600870181012D
:100498002808043E860087018101692A5D08113A0F
:1004A800031D692A2808023E860087012100640886
:1004B800C03F6508C13F20002808043E8600870128
:1004C80021006608C03F6708C13F20005D08203A48
:1004D800031D912A210065082000A6002808023E75
:1004E8008600870126088100210064082000A600F4
:1004F8002808033E86008701260881002808043E54
:10050800860087018101210068082000A6002808CC
:10051800053E8600870126088100DD1D9F2A2808E0
:100528008600870121006408C03F6508C13F66084E
:10053800C23F6708C33F8D31742581316230200086
:100548005C02031808005D1EAC2A8B313F230800AB
:10055800DD1EB12A8431AF240800DD1DB62A8E3194
:10056800542608008D31742508002000A6002608AE
:100578006D3E860087010108A4002408A5008D317E
:100588002525823106302000A4002408A000260872
:100598008B3106238231CE3E860087010030C03F72
:1005A8000030C13FC23FC33F06302000A4002408EA
:1005B800A00026088B3106238231043ECE3E8600F9
:1005C80087010030C03FC13F2000A6080319F01082
:1005D8002608013A03197011A001A00A26088B31D8
:1005E800532382312000A00126088B312B2382312E
:1005F80020002635C03E860087010030C03FC13F3D
:100608003F2BA00126088B31532382312000260876
:100618008D319C250800200026088A31D222080046
:100628002000A00126088B315323823120002608A0
:100638008A31B42282312000A001A00A26088B3119
:100648002B2382312000A6080319F0142608013A4A
:10065800031D080070150800A00126088B315323DC
:100668008231200026088A31B4220800200026089A
:100678008A31B422080020002508003A0319052B06
:10068800013A0319052B033A0319052B013A0319FB
:10069800052B073A0319302B023A03190F2B0E3A90
:1006A8000319302B013A0319302B033A0319302B65
:1006B800013A0319302B4B3A03190F2BC03A03198F
:1006C800142B3A2B0800013020004E06031D6E2B18
:1006D80000304D060319782B01304E06031D762B8A
:1006E80001304D06031DB12B4D08B6003608B80081
:1006F800D80138086D3E860087010108B600360823
:10070800B7004F08B60038086D3E860087013608E6
:10071800810038088231B922833120005808031932
:10072800AB2B3708B60038086D3E860087013608BF
:10073800810038088231B922833102302000B600A6
:100748003608AF00600880388B31A92308008C3147
:100758007B2483318C315C24080020004E084D0432
:10076800031DD52B6D08803A031DC82B50084F0474
:10077800031DD22B00302100D1000030D000003002
:10078800CF000030CE00D22B200050082100C1013C
:10079800C10720004F082100C001C0078C317B240D
:1007A8000800013020004D064E04031DFA2B6E0888
:1007B800803A031DED2B50084F04031DF72B003022
:1007C8002100D7000030D6000030D5000030D4001A
:1007D800F72B200050082100C301C30720004F0851
:1007E8002100C201C2078C317B240800A030200000
:1007F8004D064E04031D0A2C4F08B6003608EC00BF
:100808008C315C2483318C317B2408000230200039
:10081800B6003608AF00600880388B31A92308007D
:100828002000AE002E08A8002808B0003008860076
:1008380087010108A8002808E1000130A80028085D
:10084800B0073008860087010108A8002808E000E2
:100858000130A8002808B007300A8600870101087F
:10086800A800A9013008860087010108AA00AB0189
:100878002A08AB00AA0128082A07CD0029082B3D21
:10088800CE000230A8002808B007300A8600870189
:100898000108A800A9013008860087010108AA00FC
:1008A800AB012A08AB00AA0128082A07CF002908AB
:1008B8002B3DD0000230A8002808B0073008860079
:1008C80087010108A800A90128082100C800200004
:1008D80029082100C90001302000A8002808B00715
:1008E8003008860087010108A800A9012808A90086
:1008F800A80128082100C804200029082100C904EB
:1009080006302000A8002808A000DA308731B22776
:10091800843120002108AD01AD072008AC01AC07E7
:100928002100490820002D06031D9E2C210048089F
:1009380020002C060319A22CAF01AD2C6C0861060F
:10094800031DA92CAF01AF0AAD2C0230A80028085E
:10095800AF002F0808000E2D8B31922308000930B4
:100968002000A5002508DC008B317C2384313E2D36
:100978000B1D08003E2D8C31DE2484310038031D08
:100988003E2DFF302000A5002508DE006330A500BD
:100998002508DC000800CC308F31332784313E2D08
:1009A80044308F31332784317D302000A50025085D
:1009B800D700FA308A31992284313E2D0B1D080068
:1009C8000130D702D70803193E2DFA308A3199220F
:1009D8000800BE308F31332784312000DA013E2DE4
:1009E8008631D62684312000A5005A08E43E8600C8
:1009F8008701250881000130A5002508DA0706309F
:100A08005A02031C08006330A5002508DC00DE013B
:100A1800DE0A080020005C08003A0319B02C013AED
:100A28000319B32C0B3A0319BC2C013A0319BF2C38
:100A3800073A0319BC2C013A0319CF2C033A0319BE
:100A4800D42C013A0319E22C1F3A0319B82C013AA5
:100A58000319BC2C033A0319BF2C013A0319BC2C07
:100A6800073A0319CF2C013A0319ED2C033A03195D
:100A7800F42C3E2D01302000A5002508DC070800D5
:100A88002000C200C208031D4B2DC401572DC4010C
:100A9800C40A572D0630512D0430B5003508C6005C
:100AA800752DC601752D44086D3E86008701010825
:100AB800083A0319502D013A0319502D033A031926
:100AC800502D013A0319502D1B3A03194E2D013AA6
:100AD80003194E2D313A03194E2DA03A03194E2D04
:100AE800552DC608031D812D0230B5003508AF000D
:100AF800600880388B31A923080020006C08B500F5
:100B08003508B8006008B5003508B9004608B500D2
:100B18003508BA00C501460845020318B42D063049
:100B2800B5003508A00044088B3106238531CE3E38
:100B380020004507B6003608860087010108B7007F
:100B48003708C3004308B5004508033E383E860011
:100B58008701350881000130B5003508C5078F2D9C
:100B68004608033EA800003003180130A9003830B9
:100B78008E31BD2608002000B90101304E06031D44
:100B8800C72D00304D06031DCB2D6D08DB2D013020
:100B98004E06031DD12D01304D06031DD52D6E08BF
:100BA800DB2DA0304D064E04031DE12D6C08B70067
:100BB800B8013708BA003808F22DFA304D064E044D
:100BC800031DEA2D0030BA000130F22DFB304D062E
:100BD8004E04031DF42D3230BA006530BB00122ECE
:100BE8004E084D04031D002E210041082000BB01C2
:100BF800BB07210040080C2E01304D064E04031D92
:100C0800102E210043082000BB01BB072100420829
:100C18002000BA01BA07122EB901B90A3908031916
:100C28001E2E0230B7003708AF00600880388B31BD
:100C3800A923080020003B08B001B0073A08AF011B
:100C4800AF078C31212408002000C801C901D80150
:100C58004D088B31C0238631003A03195B2E2000E2
:100C68004D0885314425080000303B2E013086317F
:100C78008526863120002808C901C9072708552E6E
:100C88008B311823863120002808C901C907270895
:100C9800552E8A31E322863120002808C901C90768
:100CA8002708C801C8076F2ED801D80A6F2E200060
:100CB8004E08003A0319612E582E4D08003A0319C0
:100CC800382E103A03193A2E303A0319442E013AB5
:100CD80003194D2E582E580803197B2E0230C700D1
:100CE8004708AF00600880388B31A923080020002E
:100CF8004908B001B0074808AF01AF078C3121247B
:100D080008002000AC00D8012C086D3E8600870141
:100D18000108A9002908AB0004302B020318B22EE1
:100D28002C088D319C2586312000AC08031DA72E88
:100D380000308E31872620002108A801A807200846
:100D4800A701A707080001308E3187262000210857
:100D5800A801A8072008A701A707080007302B0249
:100D68000318D12EAC08031DC52E03100C1803144C
:100D78000030093DA900AA012908A7002A08A800EF
:100D8800080003108C1803140030093DA900AA01BB
:100D98002908A7002A08A8000800FF30A700FF308C
:100DA800A80008002000A301A30AA2010830A1009E
:100DB8002108A400A40803191F2FF708031DE92E12
:100DC80021000C1020000C10ED2E21008C102000AA
:100DD8008C108B1301308A318D2286310B1DF22E37
:100DE800F708031DFA2E21000C14FC2E21008C1488
:100DF80001308A318D2286310B1D002FF708031D23
:100E0800092F20000C1C102F0C2F20008C1C102FD9
:100E18002308A1002108A2048B173C308A318D22B7
:100E280086310B1D152F03102000A30D0130A402DD
:100E3800A408031DE12E22080800F01E2D2F200013
:100E4800E508031D292F0C102D2F6508013A0319F9
:100E58008C100130F20072082000E50703306502AB
:100E68000318E501181011106508023A031D402FF8
:100E7800E030CB002E30472F6535C03E8600870115
:100E8800403FCB00413FCC004C084B04031D522F80
:100E9800F012FC309700183096005E2FF0164B09C0
:100EA800F2004C09F300F20A0319F30A72089600DB
:100EB800730897001814E508031D642F0C14080024
:100EC8006508013A031D08008C1408002000A401DD
:100ED8008030A2003E30A300A5010230250203188D
:100EE800932F25086D3E860087010108403A031DAF
:100EF8008B2FA401A40A2535C03E86008701403FF8
:100F0800A000413FA1002008A2022108A33B013014
:100F1800A0002008A50702302502031C752F24080D
:100F28000319AD2F18180800E5012209A0002309AC
:100F3800A100A00A0319A10A200896002108970019
:100F48003030980099131110210011142000181442
:100F58000800181011102100111008002000A4002A
:100F6800FF30A600FF30A700A0080319F02F2408BF
:100F78008600870126080106A6002708A700013079
:100F8800A2002208A4070830A2002208A500A5088C
:100F98000319EB2F261CDC2F2708A3002608A20024
:100FA800A336A20C01302206A600A0302306E52FA6
:100FB8002708A3002608A200A336A20C2208A60030
:100FC8002308A7000130A502A508031DCE2F013074
:100FD800A002A008031DBB2F2708A101A10726080E
:100FE800A001A00708002000630864060030031D64
:040FF80001300800BC
:101502008B132000E301E4018B17080064008001C3
:101512000131890B882A00342000A0008B1202308E
:101522002100950020002003FF3A95000B110800CE
:101532002000A0008B12073021009500200020031C
:10154200FF3A95000B1108008B120B11FF3021009E
:10155200E800FF30E90020005D08113A031D080091
:101562008B31672308002000A000A008031DBE2ABB
:1015720021000C1423000C10080021008C142300FD
:101582008C100800E33021009E0001309D002300F2
:101592008C012100111320001113C2302200970088
:1015A20008002000A000A008031DDD2A0C10210065
:1015B2000C1023000C1008008C1021008C1023004A
:1015C2008C100800220097161712FC3021009E058D
:1015D2001D308E31872620002108A801A807200887
:1015E200A701A7070800F300F308031DFF2A7208EA
:1015F2002700031D12140319121008007208270095
:10160200031D92140319921008002000A300A201E6
:10161200231C0F2B2008A1002108A2070310A00DF4
:101622000310A30CA308031D092B220808002200A3
:101632001708FC3902389700FC3021009E051F3044
:101642008E31872620002108A801A8072008A701BB
:10165200A70708002000A100A108031D372B2008BE
:101662002700031D1214031912100800200020087D
:101672002700031D9214031992100800462B8D3186
:101682004C2508008E312326080020005C08013A10
:101692000319402B633A0319522B013A0319522BB7
:1016A200432B08002000A100A108031D5F2B200886
:1016B2002400031D0C1403190C100800200020083C
:1016C2002400031D8C1403198C1008008B122000B7
:1016D200A00177088B312B238B3163302000A200CD
:1016E2002208DC00F708031D792B21000C140800E6
:1016F20021008C140800F708031D872B21000C1011
:1017020020000C102700121013108E2B21008C10B9
:1017120020008C102700921093100F308A319922EA
:101722000800033020005402E93003195302031C5D
:101732000800F708031DA22B21000C1020000C103A
:10174200A62B21008C1020008C10DC01DC0A080082
:101752002000B1006C08B0003008B20031088038B7
:10176200B0003008B3002F08B0003008B4000330D6
:10177200A8000030A90032308E31BD2608002000BA
:10178200A000A008031DCB2B6D08B8390319CB2B81
:10179200013008002008103A031DD52B6E08B83915
:1017A2000319D52B01300800003008002000B000DA
:1017B2006C08AF002F08B1006008AF002F08B2001C
:1017C200B301B30A3008AF002F08B4000430A800F8
:1017D2000030A90031308E31BD26080007302000CC
:1017E2009C007D309B009A0191106430D100003042
:1017F200D2000A30A0002008E600210091140B1745
:101802008B17C401C501C601C70108008731F7273C
:101812008C31003A0319072C20006408203E860010
:10182200013087000108A0002008A1000130A000BB
:101832002008E407203064020318E40121080800AC
:1018420020006C08B1003108B2006008B100310814
:10185200B3000230B1003108B4003008B1003108E1
:10186200B5002F08B1003108B6000530A8000030DD
:10187200A90032308E31BD2608006C302000A40051
:101882002408A500A6010330260203180800260832
:101892008C31BD248C312000A400250886008701EC
:1018A200240881000130A4002408A5070130A40007
:1018B2002408A607442C6C302000A4002408A500AC
:1018C200A6010330260203180800250886008701B6
:1018D2000108A4002408A00026088D31C6258C31F9
:1018E20001302000A4002408A5070130A400240828
:1018F200A607622C20006C08AF002F08B000600819
:10190200AF002F08B1004E08AF002F08B2004D08FB
:10191200AF002F08B3005008AF002F08B4004F08E3
:10192200AF002F08B5000630A8000030A900303003
:101932008E31BD26080020004E084D04031DA72C41
:1019420000300C1801308B31D72308000130200001
:101952004D064E04031DB32C00308C1801308B3120
:10196200D723080002302000B5003508AF00600818
:1019720080388B31A92308002000A300C12C20004D
:10198200640023009518C02C20002308A000A101A8
:1019920020082300910020002108230092003F30FC
:1019A2002000A20022082300950515140310151823
:1019B20003140030093D13080800F708031DE42C46
:1019C20021000C14E62C21008C143C308A318D222B
:1019D2008C310B1DEA2CF708031DF42C7012200029
:1019E2000C187016F82C701220008C187016701ECD
:1019F200FC2C003008000F308A3199220130080097
:101A02002000A1002108A00020082100CD077808AD
:101A1200013E2000A0002008A2002030220203186C
:101A2200A201220879060319122D2108A0007808C4
:101A3200A03E86008701200881002208A00020081D
:101A4200F8002100111608002000A3010230230231
:101A52000318080023086D3E860087010108103A2A
:101A620003193B2D23086D3E860087010108113AB8
:101A7200031D402DA00123088B312B238D31200023
:101A8200DC016D08A2002208DD00F7010130A2008E
:101A92002208A307272D0030200054020330031927
:101AA2005302031C0800F708031D5A2D21000C14D1
:101AB2005C2D21008C140000000020009501F70825
:101AC200031D672D2700131012146A2D270093108F
:101AD20092148B150B118B162000DE016230A000D0
:101AE2002008DC00080001302000A0002008F707D1
:101AF200023077020318F70177086D3E86008701EE
:101B02000108A0002008DD00DC01DE01D301D401C0
:101B12008B127013DD197017A10106302102031810
:101B220008002108E43E8600870181010130A000FF
:101B32002008A1078E2D2000A10021086D3E8600FD
:101B420087010108A0002008A200A108031DAE2DF4
:101B520021000C1423000C14B22D21008C1423003C
:101B62008C142200170820002206FC3922062200CB
:101B720097002000A208031DC22DFC3021009E0503
:101B82000800033021009E0408002000A300230067
:101B92009518C82D20002308A100A20121082300C6
:101BA2009100200022082300920020002008230038
:101BB20093003F302000A10021082300950520005A
:101BC20003108B1B03148B1323001515553096003D
:101BD200AA309600951415112000031C08008B17DB
:101BE20008002000DE01DE0ADC01DC0AF708031D22
:101BF200FC2D9F01FE2D01309F009E138B12D501FB
:101C0200D6019501F110711070105D08083A031D9C
:101C12000C2E8130192E5D08093A031D122E8530D3
:101C2200192E5D080A3A031D182E8930192E8D309F
:101C32009E0020302100950095168B127017F1142A
:101C420070100800033020005402E93003195302D7
:101C5200031C0800F708031D362E2700121013106C
:101C620021000C1020000C103D2E27009210931022
:101C720021008C1020008C10DC01DC0A2830A0002E
:101C82002008D9000830A0002008E900E801DA01A4
:101C92000230A0002008E20002302100950020005E
:101CA2009501DB0108007D2E8D31F2250800701CA4
:101CB20008002100E40120005608A00020082100AD
:101CC200E50020005508A00020082100E6002000C1
:101CD2006A08A00020082100E7002000D501D601F3
:101CE200EA016330A0002008DC00DE01DE0A9E1358
:101CF200210095128B12080020005C08003A03199B
:101D0200552E013A0319582E862E08002000A400F1
:101D1200210011132000111321001D141D14200095
:101D22002408A200A20DA20D21001D0820002206F7
:101D32008339220621009D000B302000A30062306F
:101D4200A200A20BA22EA30BA22E000021009D1422
:101D52009D18A92E1C082000A2002208A60021001E
:101D62001B082000A2002208A5002608A101A10745
:101D72002508A001A00708002000AE002808AA003C
:101D82002A08A0002E088731B2278E3120002108B0
:101D9200AC01AC072008AB01AB07F0150C15AD0187
:101DA2002908803A803C031DD82E28082D020318EA
:101DB200EB2E20002D082E07AA002A088600870194
:101DC20001088D3101258E3101302000AA002A0838
:101DD200AD07D12E20002B088D3101258E31200038
:101DE2002C088D3101250800003020004E020230FF
:101DF20003194D020318292F4D086D3E86008701F5
:101E02000108063A031D292F4E084D04031D182F01
:101E120021000C1023000C10200050084F0403195D
:101E2200152F20000C14262F20000C10262F210025
:101E32008C1023008C10200050084F040319242F0B
:101E420020008C14262F20008C108C317B2408005B
:101E520002302000B6003608AF00600880388B31AF
:101E6200A92308002000A200A401A40A0830A100AE
:101E72002108A300A308031908008B13F708031D08
:101E8200472F21000C1020000C104B2F21008C102A
:101E920020008C10220824050319572F01308A31A3
:101EA2008D228F310B1D532F8B175E2F8B173C30DA
:101EB2008A318D228F310B1D5C2FF708031D642F91
:101EC20021000C14662F21008C1420002208240506
:101ED2000319712F3C308A318D228F310B1D6F2FE8
:101EE20003102000A40D0130A3023B2F20006C0838
:101EF2006106031D0800C730CA000000CA0B7E2F0E
:101F02000032000020006008013A031D8B2F8C3143
:101F12009C24080020006008023A031D932F8C3194
:101F22009C24080020006008033A031D9B2F853182
:101F3200BF25080020006008043A031DA32F863144
:101F42002826080020006008053A031DAB2F8E31B9
:101F5200F526080020006008063A031DB32F8331DE
:101F6200672308002000AF01AF0A600880388B3178
:101F7200A9230800200062080319C22F0130E202DF
:101F820008000310E80D65306A0203186814013076
:101F9200E902E908031DE52F0830F4007408E9009E
:101FA20004305A020318E52F6808F4007408DB07AE
:101FB2006808F4005A08E43E86008701740881002C
:101FC2000130F4007408DA070130D902D908031D80
:101FD20008005B086806031DF12FDE01DE0AF52FFB
:101FE200FF30F4007408DE00F20177088A31F4222F
:0E1FF2008B126330F40074082000DC0008003D
:020000040001F9
:04000E00E4EFFFFE1E
:10E000007F0004000400FF00FF00FF00FF00FF008E
:00000001FF
